:100000000C9462000C948A000C948A000C948A0070
:100010000C948A000C948A000C948A000C948A0038
:100020000C948A000C948A000C948A000C948A0028
:100030000C948A000C948A000C948A000C948A0018
:100040000C9489050C948A000C9457050C94310586
:100050000C948A000C948A000C948A000C948A00F8
:100060000C948A000C948A000000000024002700F1
:100070002A0000000000250028002B0000000000DE
:1000800023002600290004040404040404040202DA
:100090000202020203030303030301020408102007
:1000A0004080010204081020010204081020000012
:1000B0000008000201000003040700000000000027
:1000C0000000D30511241FBECFEFD8E0DEBFCDBFA7
:1000D00012E0A0E0B1E0EEEDF7E102C005900D9274
:1000E000A430B107D9F723E0A4E0B2E001C01D922B
:1000F000A034B207E1F710E0C2E6D0E004C02197D7
:10010000FE010E94D80BC136D107C9F70E948B06A9
:100110000C94ED0B0C94000096E0899FD001112403
:10012000AF52BD4F90967C936E935F9791E09196FE
:100130009C939197E0913E03F0913F0390913D0392
:10014000992339F0309751F0811108C08091ED0268
:100150000994309719F05C968C91FACF0895CF925C
:10016000DF92EF92FF920F931F9396E0899FF00129
:100170001124EF52FD4F11A2278D30A121303105FE
:1001800051F178F02230310509F451C023303105A6
:1001900009F452C01F910F91FF90EF90DF90CF9024
:1001A00008956623B9F361E070E00E948C002FB7D8
:1001B000F8948091180290911902A0911A02B091BE
:1001C0001B022FBF8093290390932A03A0932B0334
:1001D000B0932C03DFCF9FB7F894C0901802D09053
:1001E0001902E0901A02F0901B029FBF00912903B0
:1001F00010912A0320912B0330912C03C01AD10AAD
:10020000E20AF30A00913B0310913C0330E020E046
:100210000C151D052E053F0550F462E070E01F919E
:100220000F91FF90EF90DF90CF900C948C006111B4
:10023000B1CF63E070E0F3CF70E060E0F0CFFC019D
:10024000538D448D252F30E0842F90E0821B930B3B
:10025000541710F0CF96089501970895FC01918DE1
:10026000828D981761F0A28DAE0FBF2FB11D5D96E4
:100270008C91928D9F5F9F73928F90E008958FEF86
:100280009FEF0895FC01918D828D981731F0828D3A
:10029000E80FF11D858D90E008958FEF9FEF089591
:1002A000FC01918D228D892F90E0805C9F4F821BF5
:1002B00091098F7399270895FC01A48DA80FB92F78
:1002C000B11DA35ABF4F2C91848D90E001968F737E
:1002D0009927848FA689B7892C93A089B1898C919D
:1002E000837080648C93938D848D981306C00288EC
:1002F000F389E02D80818F7D80830895EF92FF92B6
:100300000F931F93CF93DF93EC0181E0888F9B8D38
:100310008C8D98131AC0E889F989808185FF15C0F2
:100320009FB7F894EE89FF896083E889F989808115
:100330008370806480839FBF81E090E0DF91CF91E4
:100340001F910F91FF90EF900895F62E0B8D10E006
:100350000F5F1F4F0F731127E02E8C8D8E110CC075
:100360000FB607FCFACFE889F989808185FFF5CFC0
:10037000CE010E945C01F1CFEB8DEC0FFD2FF11D42
:10038000E35AFF4FF0829FB7F8940B8FEA89FB89FD
:1003900080818062CFCFCF93DF93EC01888D88235B
:1003A000B9F0AA89BB89E889F9898C9185FD03C0D8
:1003B000808186FD0DC00FB607FCF7CF8C9185FFBD
:1003C000F2CF808185FFEDCFCE010E945C01E9CFA5
:1003D000DF91CF9108958CE192E00E94500121E0DD
:1003E000892B09F420E0822F089580E090E0892B8A
:1003F00029F00E94EB0181110C9400000895AF9246
:10040000BF92CF92DF92EF92FF920F931F93CF9301
:10041000DF936C017B018B01040F151FEB015E0163
:10042000AE18BF08C017D10759F06991D601ED91F8
:10043000FC910190F081E02DC6010995892B79F797
:10044000C501DF91CF911F910F91FF90EF90DF9049
:10045000CF90BF90AF900895833081F028F4813021
:1004600099F08230A9F008958730A9F08830C9F05A
:100470008430B1F4809180008F7D03C08091800032
:100480008F7780938000089584B58F7784BD089519
:1004900084B58F7DFBCF8091B0008F778093B000C3
:1004A00008958091B0008F7DF9CFCF93DF93282FEF
:1004B00030E0F901E255FF4F8491F901E656FF4F14
:1004C000D491F901EA57FF4FC491CC23A1F08111D7
:1004D0000E942C02EC2FF0E0EE0FFF1FE458FF4FBC
:1004E000A591B491EC91ED2381E090E009F480E0D6
:1004F000DF91CF91089580E090E0FACF862F0C94A1
:1005000055021F93CF93DF93282F30E0F901E25576
:10051000FF4F8491F901E656FF4FD491F901EA5754
:10052000FF4FC491CC23A9F0162F81110E942C02F9
:10053000EC2FF0E0EE0FFF1FEE58FF4FA591B491A6
:100540008FB7F894EC91111108C0D095DE23DC939D
:100550008FBFDF91CF911F910895DE2BF8CF862FAB
:10056000642F0C948102CF93DF9390E0FC01E65658
:10057000FF4F24918A579F4FFC0184918823C9F033
:1005800090E0880F991FFC01E859FF4FA591B491A5
:10059000FC01EE58FF4FC591D49161110DC09FB77A
:1005A000F8948C91209582238C938881282328832A
:1005B0009FBFDF91CF910895623051F49FB7F894B7
:1005C0003C91822F809583238C93E8812E2BEFCF53
:1005D0008FB7F894EC912E2B2C938FBFEACF862FF8
:1005E000642F0C94B3023FB7F89480910502909168
:1005F0000602A0910702B091080226B5A89B05C08B
:100600002F3F19F00196A11DB11D3FBFBA2FA92F91
:10061000982F8827BC01CD01620F711D811D911D8E
:1006200042E0660F771F881F991F4A95D1F70895FA
:100630008F929F92AF92BF92CF92DF92EF92FF92F2
:100640004B015C010E94F3026B017C010E94F302EA
:100650006C197D098E099F09683E734081059105DB
:10066000A8F321E0821A9108A108B10888EEC80E0B
:1006700083E0D81EE11CF11C81149104A104B10493
:1006800029F7FF90EF90DF90CF90BF90AF909F90B1
:100690008F900895089590E080E00895CF93DF93C0
:1006A000EC0160E08E810E94810261E08E810E94F7
:1006B000810260E08E810E9481028BE891E00197C7
:1006C000F1F7DF91CF910895CF92DF92EF92FF92F1
:1006D0000F931F93CF93DF936C017C0187E0E80EAB
:1006E000F11CD0E0C0E0062F10E0B8010C2E02C0D3
:1006F000759567950A94E2F76170F70181917F0122
:100700000E9481022196C430D10579F7C601DF919C
:10071000CF911F910F91FF90EF90DF90CF900C94AD
:100720004E03CF92DF92EF92FF920F931F93CF93DE
:10073000DF93EC01F62E642F8C810E9481028D8163
:100740008F3F19F060E00E9481020F2D10E08F852D
:1007500084FF25C06E0187E0C80ED11CF12CE12C6E
:10076000B8010E2C02C0759567950A94E2F7617086
:10077000F60181916F010E948102FFEFEF1AFF0ADB
:1007800088E0E816F10461F7CE01DF91CF911F9167
:100790000F91FF90EF90DF90CF900C944E03B80133
:1007A00084E0759567958A95E1F7CE010E94640310
:1007B0006F2DCE01DF91CF911F910F91FF90EF90A0
:1007C000DF90CF900C94640340E0682F89EB92E0B7
:1007D0000C94910381E00E94E4038BE39FE1019775
:1007E000F1F70895CF93DF93823029F49091C802F6
:1007F00098609093C8028093CC021092CD0280E45E
:100800008093CE0280E18093CF0280E58093D00276
:1008100061E08091BD020E94B3028091BE028F3FD1
:1008200019F061E00E94B30261E08091BF020E9472
:10083000B302C9EBD2E09E01295B32408091C8022D
:1008400084FD0BC084E090E021962817390744F41A
:1008500061E08E810E94B302EECF88E090E0F4CF99
:100860008BE39DE00197F1F760E08091BD020E946B
:10087000810260E08091BF020E9481028091BE02ED
:100880008F3F19F060E00E9481028091C80284FDD0
:1008900034C063E089EB92E00E946403CBE4D6E4C9
:1008A000CE010197F1F763E089EB92E00E946403C7
:1008B0002197F1F763E089EB92E00E94640383E5FE
:1008C00092E00197F1F762E089EB92E00E94640305
:1008D0008091C80280620E94E40384E08093C90290
:1008E0008CE00E94E4030E94EA0382E08093CA0243
:1008F00086E0DF91CF910C94E40380620E94E403D0
:100900008BE496E40197F1F78091C80280620E941F
:10091000E40383E592E00197F1F78091C8028062D9
:100920000E94E403D5CF41E00E94910381E090E072
:100930000895FB0101900020E9F73197AF01461BB4
:10094000570BDC01ED91FC910280F381E02D0994BD
:10095000CF93DF93BC018CE192E00E949904EC01FB
:1009600060E471E08CE192E00E9499048C0F9D1F7D
:10097000DF91CF910895CF92DF92EF92FF920F9384
:100980001F93CF93DF93CDB7DEB7A1970FB6F8943F
:10099000DEBF0FBECDBF6B017C01F7FE3EC041E064
:1009A0006DE289EB92E00E94910322273327A9018F
:1009B0002C193D094E095F0919A28E010F5D1F4FC9
:1009C0009AE0C92ED12CE12CF12CCA01B901A70162
:1009D00096010E948C0B605DF80162938F012115D6
:1009E00031054105510589F790E080E0309729F005
:1009F000BF0189EB92E00E9499040196A1960FB67F
:100A0000F894DEBF0FBECDBFDF91CF911F910F9144
:100A1000FF90EF90DF90CF900895AC019B0119A259
:100A20008E010F5D1F4F8AE0C82ED12CE12CF12CD6
:100A3000CA01B901A70196010E948C0B605DF80103
:100A400062938F01211531054105510589F790E029
:100A500080E0309799F2BF0189EB92E00E949904FF
:100A6000CDCF1F920F920FB60F9211242F933F9369
:100A70004F935F936F937F938F939F93AF93BF93A6
:100A8000EF93FF938CE192E00E945C01FF91EF9164
:100A9000BF91AF919F918F917F916F915F914F9196
:100AA0003F912F910F900FBE0F901F9018951F929E
:100AB0000F920FB60F9211242F938F939F93EF9362
:100AC000FF93E0912C02F0912D028081E09132029F
:100AD000F091330282FD1BC09081809135028F5FBF
:100AE0008F7320913602821741F0E0913502F0E0D9
:100AF000E45EFD4F958F80933502FF91EF919F91BA
:100B00008F912F910F900FBE0F901F90189580819D
:100B1000F4CF1F920F920FB60F9211242F933F9391
:100B20008F939F93AF93BF93809118029091190276
:100B3000A0911A02B0911B023091040223E0230F0E
:100B40002D3758F50196A11DB11D20930402809305
:100B5000180290931902A0931A02B0931B0280917D
:100B6000050290910602A0910702B0910802019639
:100B7000A11DB11D8093050290930602A093070268
:100B8000B0930802BF91AF919F918F913F912F91A8
:100B90000F900FBE0F901F90189526E8230F029616
:100BA000A11DB11DD2CF10921F0210921E0288EE1D
:100BB00093E0A0E0B0E08093200290932102A09304
:100BC0002202B09323028CE191E090931D02809366
:100BD0001C0285EC90E0909329028093280284EC1B
:100BE00090E090932B0280932A0280EC90E0909307
:100BF0002D0280932C0281EC90E090932F02809341
:100C00002E0282EC90E0909331028093300286ECC9
:100C100090E090933302809332021092350210924A
:100C2000360210923702109238021092D3021092BC
:100C3000D7021092D6021092D8028AE391E09093E4
:100C4000D2028093D102EDEEF2E010821482138280
:100C50001582369683E0E932F807B9F784E091E02F
:100C6000909334038093330380E091E090933603B4
:100C70008093350384E0809337038093380388E0C2
:100C800091E090933203809331038AE090E0909357
:100C90003A038093390384EF91E090933C0380936F
:100CA0003B0310923F0310923E0310922D031092CB
:100CB0002E0310922F031092300310923D031092D6
:100CC000BC021092BB028EE291E09093BA02809334
:100CD000B90288E08093BD028FEF8093BE0289E065
:100CE0008093BF028AE08093C0028BE08093C102B0
:100CF0008CE08093C2028DE08093C3021092C40204
:100D00001092C5021092C6021092C7021092C80239
:100D100081E00C94F203789484B5826084BD84B53C
:100D2000816084BD85B5826085BD85B5816085BDE6
:100D300080916E00816080936E001092810080919E
:100D40008100826080938100809181008160809326
:100D50008100809180008160809380008091B1004B
:100D600084608093B1008091B00081608093B00076
:100D700080917A00846080937A0080917A0082600A
:100D800080937A0080917A00816080937A008091CC
:100D90007A00806880937A001092C10082E00E94FD
:100DA000F20363E471E089EB92E00E949904E09120
:100DB000CC02E23008F059C0E150F0E0E754FD4FBA
:100DC000848980680E94E4036EE471E089EB92E01C
:100DD0000E94990460ED77E080E090E00E941803A3
:100DE0000E94EA0365E0462E512C612C712C2224CE
:100DF0002A94322C50E0852E50E0952E81E080938D
:100E00003D038FB7F89440911802509119026091F8
:100E10001A0270911B028FBF80912D0390912E03B7
:100E2000A0912F03B0913003481B590B6A0B7B0B29
:100E30008091390390913A03B0E0A0E084179507C0
:100E4000A607B70708F098C1C0E080913703C8171C
:100E500070F4E0913303F0913403EC0FF11D62E084
:100E600080810E94B302CF5FF0CFE1E0A6CFB12C2A
:100E700080913803B81608F061C00B2D10E0E091A6
:100E80003503F0913603E00FF11F61E080810E948D
:100E9000B302E0913503F0913603E00FF11F60E0FB
:100EA00080810E94810281E090E0A0E0B0E00B2C04
:100EB00004C0880F991FAA1FBB1F0A94D2F76C01A8
:100EC0007C01E094F094A12C80913703A816F8F4EB
:100ED000CA2DD0E0E0913303F0913403EC0FFD1FF5
:100EE00080810E9455022496CC0FDD1FCF52DD4F2A
:100EF000892B41F4888199818C299D299983888344
:100F0000A394E2CF888199818E219F21F7CFE09130
:100F10003503F0913603E00FF11F61E080810E94FC
:100F200081028091350390913603080F191F60E00C
:100F3000D8018C910E94B302B3949ACF21EDC22EB6
:100F400022E0D22EE6018F8D98A1892B21F41C8EF0
:100F50003E8E2D8E19A22696EDE0F3E0EC17FD07EC
:100F600091F710E096E0B92E80913703181708F03A
:100F700052C000E0E12EF12CEE0CFF1C970127522D
:100F80003D4F790120913803021708F042C0D70184
:100F90006D917C91002E02C0769567950A94E2F7D8
:100FA000129F90011124200F311DE1EDF2E080E04D
:100FB000458D568D2417350709F49CC38F5F3696EF
:100FC0008A30B1F760FF23C0E1EDF2E090E080E00D
:100FD000448D411117C0E0913103F0913203E20FCB
:100FE000F31F6081B89EF001B99EF00D1124EF52FD
:100FF000FD4F648F368F258F10A2178E61E00E94FF
:10100000AF0005C0019636968A30910509F70F5F4B
:10101000B9CF1F5FA9CF80E0F60191A19111892F6F
:10102000F6E0CF0ED11CCC15DD05B1F79FB7F894D3
:10103000409118025091190260911A0270911B029E
:101040009FBF40932D0350932E0360932F03709303
:101050003003882309F490C08091F202882309F4B8
:101060008BC08091F0029091F102019709F084C049
:10107000C091ED02C0931702C11183C0C09012024B
:10108000D0901302E0901402F090150280911602A5
:101090008823C9F0809111028B3209F0E7C2809158
:1010A0000D0290910E02A0910F02B09110028C0DD2
:1010B0009D1DAE1DBF1D8093090290930A02A0934F
:1010C0000B02B0930C02E1E08091CC028111E0E0D0
:1010D000E195F0E0E754FD4F848980680E94E403C5
:1010E000C701B6010E94BB0441E06091110289EB87
:1010F00092E00E94910360910D0270910E02809126
:101100000F02909110020E94BB0480911602882366
:1011100081F060E072E089EB92E00E9499046091B6
:10112000090270910A0280910B0290910C020E94B8
:10113000BB04E091CC02E23008F0DAC2E150F0E00A
:10114000E754FD4F848980680E94E403609109029E
:1011500070910A0280910B0290910C020E94BB04D4
:101160008114910409F44ACE0E94EB01882309F40A
:101170003ECE0E9400003BCE10923D03109217021B
:101180007DCF0E94EA03CA32F1F48EE591E00E941D
:10119000A80410920D0210920E0210920F021092EB
:1011A0001002109212021092130210921402109266
:1011B00015021092090210920A0210920B0210926C
:1011C0000C0210921602809117028133F1F48CE622
:1011D00091E00E94A8042091090230910A024091F6
:1011E0000B0250910C02211531054105510509F002
:1011F000A4C121E030E040E050E0209309023093A8
:101200000A0240930B0250930C0280911702843320
:10121000F1F485E791E00E94A80420910902309141
:101220000A0240910B0250910C0221153105410533
:10123000510509F093C184E090E0A0E0B0E0809314
:10124000090290930A02A0930B02B0930C028091C2
:1012500017028733F1F48EE791E00E94A8042091F1
:10126000090230910A0240910B0250910C022115A3
:1012700031054105510509F082C127E030E040E029
:1012800050E02093090230930A0240930B025093DE
:101290000C02809117028033E9F487E891E00E9404
:1012A000A8042091090230910A0240910B0250914A
:1012B0000C02211531054105510561F0AAE0B0E0AD
:1012C0000E94CD0B6093090270930A0280930B0277
:1012D00090930C02809117028233F1F480E991E03F
:1012E0000E94A8042091090230910A0240910B0249
:1012F00050910C02211531054105510509F050C1ED
:1013000082E090E0A0E0B0E08093090290930A02AE
:10131000A0930B02B0930C02809117028533D1F495
:1013200089E991E00E94A8042091090230910A0203
:1013300040910B0250910C022115310541055105D8
:1013400009F03FC14092090250920A0260920B02DA
:1013500070920C02809117028833F1F482EA91E0D6
:101360000E94A8042091090230910A0240910B02C8
:1013700050910C02211531054105510509F032C18A
:1013800028E030E040E050E02093090230930A0268
:1013900040930B0250930C02809117028332B9F4F0
:1013A0008BEA91E00E94A8048091090290910A02C0
:1013B000A0910B02B0910C0280930D0290930E024B
:1013C000A0930F02B093100281E0809316028091E7
:1013D00017028333F1F488EB91E00E94A804209176
:1013E000090230910A0240910B0250910C02211522
:1013F00031054105510509F006C183E090E0A0E008
:10140000B0E08093090290930A02A0930B02B0937C
:101410000C02809117028633F1F481EC91E00E9476
:10142000A8042091090230910A0240910B025091C8
:101430000C02211531054105510509F0F5C026E0E2
:1014400030E040E050E02093090230930A024093DC
:101450000B0250930C02809117028933F1F48AEC4D
:1014600091E00E94A8042091090230910A02409163
:101470000B0250910C02211531054105510509F06F
:10148000E4C089E090E0A0E0B0E08093090290938E
:101490000A02A0930B02B0930C02809117029FEBFB
:1014A000980F943008F0EACD4091090250910A0259
:1014B00060910B0270910C02409312025093130240
:1014C00060931402709315021092090210920A029E
:1014D00010920B0210920C02813439F483ED91E0EA
:1014E0000E94A8048BE2809311028091170282343B
:1014F00039F48CED91E00E94A8048DE280931102F2
:1015000080911702833439F488EE91E00E94A80498
:101510008AE28093110280911702843439F487EFB4
:1015200091E00E94A8048FE28093110264E670E0CB
:1015300080E090E00E941803A1CDAAE0B0E00E94F4
:10154000CD0B6F5F7F4F8F4F9F4F6093090270935A
:101550000A0280930B0290930C0257CEAAE0B0E0EF
:101560000E94CD0B6C5F7F4F8F4F9F4F609309029E
:1015700070930A0280930B0290930C0268CEAAE04B
:10158000B0E00E94CD0B695F7F4F8F4F9F4F6093FC
:10159000090270930A0280930B0290930C0279CE99
:1015A000AAE0B0E00E94CD0B6E5F7F4F8F4F9F4F40
:1015B0006093090270930A0280930B0290930C02CD
:1015C000ABCEAAE0B0E00E94CD0B6B5F7F4F8F4F98
:1015D0009F4F6093090270930A0280930B029093CD
:1015E0000C02B8CEAAE0B0E00E94CD0B685F7F4F3E
:1015F0008F4F9F4F6093090270930A0280930B02F2
:1016000090930C02C9CEAAE0B0E00E94CD0B6D5FB2
:101610007F4F8F4F9F4F6093090270930A02809310
:101620000B0290930C02F5CEAAE0B0E00E94CD0B25
:101630006A5F7F4F8F4F9F4F6093090270930A023A
:1016400080930B0290930C0206CFAAE0B0E00E94B8
:10165000CD0B675F7F4F8F4F9F4F60930902709351
:101660000A0280930B0290930C0217CF8D3289F4FB
:1016700080910D0290910E02A0910F02B091100284
:10168000A7019601281B390B4A0B5B0BDA01C90134
:1016900012CD8A32A9F420910D0230910E024091B0
:1016A0000F0250911002C701B6010E947C0B60939B
:1016B000090270930A0280930B0290930C0203CDEF
:1016C0008F3209F000CD20910D0230910E02409131
:1016D0000F0250911002C701B6010E94AE0B209379
:1016E000090230930A0240930B0250930C02EBCC98
:1016F000E1E025CD617083CCDB018F939F930E9445
:10170000CD0BBF91AF91A29F800D911DA39F900D16
:10171000B29F900D11240895A1E21A2EAA1BBB1BA3
:10172000FD010DC0AA1FBB1FEE1FFF1FA217B307AD
:10173000E407F50720F0A21BB30BE40BF50B661FC3
:10174000771F881F991F1A9469F760957095809587
:1017500090959B01AC01BD01CF010895052E97FB2B
:101760001EF400940E94C50B57FD07D00E948C0BFD
:1017700007FC03D04EF40C94C50B50954095309562
:1017800021953F4F4F4F5F4F0895909580957095ED
:1017900061957F4F8F4F9F4F08950E94DE0BA59F4D
:1017A000900DB49F900DA49F800D911D112408955C
:1017B000EE0FFF1F0590F491E02D0994A29FB00158
:1017C000B39FC001A39F700D811D1124911DB29F75
:0E17D000700D811D1124911D0895F894FFCF16
:1017DE000405060700010203373839443435364311
:1017EE00313233422A302341000000007E01FF01D6
:1017FE001F01CB0150012E01420100000000930495
:10180E00FF014B034A0300000000EF02AF027E020D
:10181E000D0A0043616C63756C61746F72004279DE
:10182E002053414442494E204A4553414E00427591
:10183E0074746F6E2043616E63656C0042757474D0
:10184E006F6E203100427574746F6E2034004275D5
:10185E0074746F6E203700427574746F6E20300092
:10186E00427574746F6E203200427574746F6E2000
:10187E003500427574746F6E203800427574746F43
:10188E006E20457175616C00427574746F6E2033F5
:10189E0000427574746F6E203600427574746F6EEC
:1018AE002039004164646974696F6E005375627407
:1018BE0072616374696F6E004D756C7469706C69DA
:1018CE00636174696F6E004465766573696F6E004F
:0418DE00203D0000A9
:00000001FF
